:20000000F331FE7FAFD3FECDB40021FD02CDC700AF010100ED79CD9A001603CD9E00160B67
:20002000CD9E001600CD9E001600CD9E00210080CDA700237DB420F80100003EFFED793EF0
:200040008401FDDFED79AF01FD7FED792100C05FCDA70077D3FE237DB420F57B3CFE0538F0
:20006000E6CD9500AF01FD7FED7901FDDFED793E1F010000ED79AFD3FE216A03CDC70021DC
:200080009103CDC700CDF4023E04010100ED7931FFFFC300003E01D303C9AFD303C9DB03CF
:2000A0000738FB7AD302C916FFCD9E00DB030738FBDB02C921004011014001001875EDB0D2
:2000C00006033607EDB0C97EFE112814FE172818FE182821FE192825B7C823CD050118E71F
:2000E000237E32027F2318DF237E32007F237E32017F2318D2237E32007F2318CA237E32B6
:20010000017F2318C2E5D5C5FE0D283BD6204F2A007F7CE6070F0F0FB56F7CE618F64057C6
:200120000F0F0FE603F658673A027F775D69260029292901AE030906087E12142310FA3A87
:20014000007F3CFE2020203A017F3CFE1820141100402120400617C5CDE601CDDE02C11060
:20016000F6180332017FAF32007FC1D1E1C947E6F00F0F0F0FCD7B0178E60FFE0A3005C60E
:2001800030C30501C637C30501DD21CE01060826000E2F0C7BDD96005F7ADD9E01577DDD62
:2001A0009E026F30EE7BDD86005F7ADD8E01577DDD8E026FDD23DD23DD237CB7200779FE6E
:2001C000303E202803792601CD050110C4C980969840420FA08601102700E803006400006A
:2001E0000A0000010000E5D57A0F0F0FE603F658577C0F0F0FE603F65867EDA0EDA0EDA017
:20020000EDA0EDA0EDA0EDA0EDA0EDA0EDA0EDA0EDA0EDA0EDA0EDA0EDA0EDA0EDA0EDA00E
:20022000EDA0EDA0EDA0EDA0EDA0EDA0EDA0EDA0EDA0EDA0EDA0EDA0EDA0D1E101F800C327
:2002400044022414EDA0EDA0EDA0EDA0EDA0EDA0EDA0EDA0EDA0EDA0EDA0EDA0EDA0EDA06A
:20026000EDA0EDA0EDA0EDA0EDA0EDA0EDA0EDA0EDA0EDA0EDA0EDA0EDA0EDA0EDA0EDA0AE
:20028000EDA07E122414EDA8EDA8EDA8EDA8EDA8EDA8EDA8EDA8EDA8EDA8EDA8EDA8EDA878
:2002A000EDA8EDA8EDA8EDA8EDA8EDA8EDA8EDA8EDA8EDA8EDA8EDA8EDA8EDA8EDA8EDA8EE
:2002C000EDA8EDA87E12EA4202C97DD6206FD07CD60867C97BD6205FD07AD60857C9247D78
:2002E000D6E06FD07CD60867C9147BD6E05FD07AD60857C9AFDBFE2FE61F28F8C9170000D7
:20030000112F526556657253452D553136204279204D56562C20323031340D0D0D110746AC
:2003200050474120536F6674436F7265202D205370656363792076302E392E320D28627533
:20034000696C64203230313430383039290D0D436F7079696E6720646174612066726F6D02
:2003600020464C4153482E2E2E00110420646F6E6511070D000D496E697469616C697A614A
:2003800074696F6E204D433134363831382E2E2E000D0D1700171107507265737320454E0D
:2003A00054455220746F20526573756D65000000000000000000001010101000100000244A
:2003C00048000000000000227F22227F220000087E487F117F10006264081023430000100E
:2003E00028102A443A0000102000000000000008101010100800000804040404080000007D
:2004000014083E0814000010107C101000000000000000101020000000007E0000000000EC
:200420000000000010000002040810204000003E434D51613E000008180808087F00003E7B
:2004400041013E407F00003E410E01413E00000A1222427F0200007F407E01413E00003E54
:20046000407E41413E00007F020408080800003E413E41413E00003E41413F013E000000A6
:20048000000800000800000008000008081000000408100804000000007E007E0000000000
:2004A000201008102000003E41010E000800007E425E5E407E00003E4141417F4100007EC5
:2004C000417E41417E00003E414040413E00007E414141417E00003F407E40403F00003FE4
:2004E000407E40404000003E41404F413E000041417F41414100007F080808087F00003FD0
:20050000010101413E0000424478444241000040404040403F000041635549414100004110
:20052000615149454300003E414141413E00007E4141417E4000003E414145423D00007EB7
:200540004141417E4100003E403E01413E00007F0808080808000041414141413E00004172
:2005600041412214080000414141494936000041413E41414100004141413F013E00007FED
:20058000010638407F00003C202020203C000040201008040200003C040404043C00000857
:2005A000142200000000000000000000FF00001E217820207F0000003E013F413F00004052
:2005C000407E41417E0000003E4140413E000001013F41413F0000003E417F403E00001E83
:2005E000203C2020200000003F41413F013E0040407E414141000008001808083E000001D0
:2006000000010101413E000041427C4241000018080808083E0000007E49494949000000BE
:200620007E414141410000003E4141413E0000007E41417E404000003F41413F01010000F9
:200640003E404040400000003E403E017E0000103C1010100E000000414141413E00000055
:200660004141221408000000414149493600000041413E41410000004141413F013E0000ED
:200680007F013E407F0000040808300808040008080800080808002010100C1010200024A5
:2006A0004800000000000103070F1F3F7FFF000000000000000000000000000000000000FC
:2006C00000000000000000000000000000000000000000000000000000000000000000001A
:2006E0000000000000000000000000000000000000000000000000000000000000000000FA
:200700000000000000000000000000000000000000000000000000000000000000000000D9
:200720000000000000000000000000000000000000000000000000000000000000000000B9
:00000001FF
